T2023 800543620999           LAKE TAHOE COMMUNITY COLLEGE                                                    LAKE TAHOE COMMUNITY COLLEGE                                                    ONE COLLEGE DRIVE                       SOUTH LAKE TAHOE                        CA961504524               00003520STEVEN MICHAEL BERRY                    5414660216                                                                                                                                                  00000001          VELLUCIAN                                2003 EDMUND HALLEY DR SUITE 500         RESTON                                  VA20191    LAURA WEATHERSBY                        8002237036                                                 
A2023      800543620     8 13457                    LAKE TAHOE COMMUNITY COLLEGE                                                    0ONE COLLEGE DRIVE                       SOUTH LAKE TAHOE                        CA9615045245414660   216                                                                                                                                                                                                                                                                      00000002                                                                                                                                                                                                                                                 
B2023     25558288390100153                           000000005425000000000000000000000000000000000000000000000000000000000000000000000000000000000000000000000000000000000000000000000000000000000000000000000000000000000000000000000000000000000000000000000000000000000000                 JOHN W MAXHIMER                                                                 P.O. BOX 10305                                                                  SOUTH LAKE TAHOE                        CA96158     00000003                                    1                                                                                                                                                                                                            
B2023     25678657510100202                           000000010850000000000000000000000000000000000000000000000000000000000000000000000000000000000000000000000000000000000000000000000000000000000000000000000000000000000000000000000000000000000000000000000000000000000000                 PAT A RODERICK                                                                  1624 SKYLINE DR                                                                 S LAKE TAHOE                            CA96150     00000004                                    1                                                                                                                                                                                                            
B2023     25457407240100318                           000000005425000000000000000000000000000000000000000000000000000000000000000000000000000000000000000000000000000000000000000000000000000000000000000000000000000000000000000000000000000000000000000000000000000000000000                 JENNIFER L BENTLEY                                                              1041 SUNDOWN TRL                                                                S LAKE TAHOE                            CA96150     00000005                                    1    1                                                                                                                                                                                                       
B2023     25599223850100601                           000000010850000000000000000000000000000000000000000000000000000000000000000000000000000000000000000000000000000000000000000000000000000000000000000000000000000000000000000000000000000000000000000000000000000000000000                 TRISH F TOMER                                                                   911 TABIRA CT                                                                   SOUTH LAKE TAHOE                        CA96150     00000006                                    1    1                                                                                                                                                                                                       
B2023     25652578480101006                           000000005425000000000000000000000000000000000000000000000000000000000000000000000000000000000000000000000000000000000000000000000000000000000000000000000000000000000000000000000000000000000000000000000000000000000000                 LORI J TURLE                                                                    P.O. BOX 16761                                                                  SOUTH LAKE TAHOE                        CA96151     00000007                                    1    1                                                                                                                                                                                                       
B2023     26032679070101858                           000000037200000000000000000000000000000000000000000000000000000000000000000000000000000000000000000000000000000000000000000000000000000000000000000000000000000000000000000000000000000000000000000000000000000000000000                 MISAEL M ARELLANO                                                               PO BOX 4332                                                                     STATELINE                               NV89449     00000008                                    1    1                                                                                                                                                                                                       
B2023     25039457000101970                           000000010850000000000000000000000000000000000000000000000000000000000000000000000000000000000000000000000000000000000000000000000000000000000000000000000000000000000000000000000000000000000000000000000000000000000000                 MARGARET L KOVARIK                                                              1910 F ST.                                                                      SOUTH LAKE TAHOE                        CA96150     00000009                                    1                                                                                                                                                                                                            
B2023     25308515080102009                           000000000000000000000000000000000000000000099400000000000000000000000000000000000000000000000000000000000000000000000000000000000000000000000000000000000000000000000000000000000000000000000000000000000000000000000000                 JAQUELINE L FUENTES                                                             PO BOX 13432                                                                    SOUTH LAKE TAHOE                        CA96151     00000010                                    1  1                                                                                                                                                                                                         
B2023     20246838350102379                           000000005425000000000000000000000000000000000000000000000000000000000000000000000000000000000000000000000000000000000000000000000000000000000000000000000000000000000000000000000000000000000000000000000000000000000000                 GEOFF D TEEL                                                                    2702 ARMSTRONG AVE                                                              S LAKE TAHOE                            CA96150     00000011                                    1                                                                                                                                                                                                            
B2023     25465776580102640                           000000018925000000000000000000000000000000000000000000000000000000000000000000000000000000000000000000000000000000000000000000000000000000000000000000000000000000000000000000000000000000000000000000000000000000000000                 JENNIFER G BRONKEN                                                              706 LASSEN DR                                                                   S LAKE TAHOE                            CA96150     00000012                                    1                                                                                                                                                                                                            
B2023     25577898620102805                           000000010850000000000000000000000000000000000000000000000000000000000000000000000000000000000000000000000000000000000000000000000000000000000000000000000000000000000000000000000000000000000000000000000000000000000000                 GALE A LAWRENCE                                                                 2522 WILLIAM AVENUE                                                             SOUTH LAKE TAHOE                        CA96150     00000013                                    1    1                                                                                                                                                                                                       
B2023     22745815950102918                           000000005650000000000000000000000000000000000000000000000000000000000000000000000000000000000000000000000000000000000000000000000000000000000000000000000000000000000000000000000000000000000000000000000000000000000000                 DOUGLAS H CICHOWICZ                                                             P.O. BOX 7663                                                                   SOUTH LAKE TAHOE                        CA96158     00000014                                    1                                                                                                                                                                                                            
B2023     25738672940103202                           000000013350000000000000000000000000000000000000000000000000000000000000000000000000000000000000000000000000000000000000000000000000000000000000000000000000000000000000000000000000000000000000000000000000000000000000                 ROBERT E ROSETT                                                                 1036 LODI AVE                                                                   S LAKE TAHOE                            CA96150     00000015                                    1    1                                                                                                                                                                                                       
B2023     25494319060103396                           000000005425000000000000000000000000000000000000000000000000000000000000000000000000000000000000000000000000000000000000000000000000000000000000000000000000000000000000000000000000000000000000000000000000000000000000                 DINA E FREUD                                                                    1232 PROSPECTOR TRL                                                             S LAKE TAHOE                            CA96150     00000016                                    1                                                                                                                                                                                                            
B2023     25624551710103832                           000000062000000000000000000000000000000000000000000000000000000000000000000000000000000000000000000000000000000000000000000000000000000000000000000000000000000000000000000000000000000000000000000000000000000000000000                 SCOTT A VALENTINE                                                               2314 UTAH AVE                                                                   S LAKE TAHOE                            CA96150     00000017                                    1    1                                                                                                                                                                                                       
B2023     25603304910104076                           000000005425000000000000000000000000000000000000000000000000000000000000000000000000000000000000000000000000000000000000000000000000000000000000000000000000000000000000000000000000000000000000000000000000000000000000                 JENNIFER I CULP                                                                 866 CLEMENT ST                                                                  S LAKE TAHOE                            CA96150     00000018                                    1    1                                                                                                                                                                                                       
B2023     25524375200104210                           000000037200000000000000000000000000000000000000000000000000000000000000000000000000000000000000000000000000000000000000000000000000000000000000000000000000000000000000000000000000000000000000000000000000000000000000                 MELISA A BENSCOTER                                                              710 W SAN BERNARDINO AVE                                                        S LAKE TAHOE                            CA96150     00000019                                    1  1                                                                                                                                                                                                         
B2023     26170170120104291                           000000011950000000000000000000000000000000000000000000000000000000000000000000000000000000000000000000000000000000000000000000000000000000000000000000000000000000000000000000000000000000000000000000000000000000000000                 DANA N ROOKS                                                                    3540 SUGAR VIEW RD                                                              MEADOW VISTA                            CA95722     00000020                                    1                                                                                                                                                                                                            
B2023     25451369680104307                           000000010850000000000000000000000000000000000000000000000000000000000000000000000000000000000000000000000000000000000000000000000000000000000000000000000000000000000000000000000000000000000000000000000000000000000000                 LAURIE C GALLAGHER                                                              PO BOX 16083                                                                    SOUTH LAKE TAHOE                        CA96151     00000021                                    1                                                                                                                                                                                                            
B2023     25689371700105901                           000000012400000000000000000000000000000000000000000000000000000000000000000000000000000000000000000000000000000000000000000000000000000000000000000000000000000000000000000000000000000000000000000000000000000000000000                 KATIA N NOVOA SOLIS                                                             3295 WOODLAND RD                                                                S LAKE TAHOE                            CA96150     00000022                                    1    1                                                                                                                                                                                                       
B2023     20874095860106197                           000000007500000000000000000000000000000000000000000000000000000000000000000000000000000000000000000000000000000000000000000000000000000000000000000000000000000000000000000000000000000000000000000000000000000000000000                 MARIE A BRAVO                                                                   14851 STATE RT 89                                                               MARKLEEVILLE                            CA96120     00000023                                    1                                                                                                                                                                                                            
B2023     22168622720106203                           000000010850000000000000000000000000000000000000000000000000000000000000000000000000000000000000000000000000000000000000000000000000000000000000000000000000000000000000000000000000000000000000000000000000000000000000                 DUANE F HAMBURG                                                                 1780 SKYLINE DR                                                                 SOUTH LAKE TAHOE                        CA96150     00000024                                    1    1                                                                                                                                                                                                       
B2023     25738650830106371                           000000005425000000000000000000000000000000000000000000000000000000000000000000000000000000000000000000000000000000000000000000000000000000000000000000000000000000000000000000000000000000000000000000000000000000000000                 PAUL B BRUSO                                                                    1315 TATA LN                                                                    S LAKE TAHOE                            CA96150     00000025                                    1                                                                                                                                                                                                            
B2023     25501366200106437                           000000005425000000000000000000000000000000000000000000000000000000000000000000000000000000000000000000000000000000000000000000000000000000000000000000000000000000000000000000000000000000000000000000000000000000000000                 MICHELE D STERLING                                                              602 SHOSHONE ST                                                                 SOUTH LAKE TAHOE                        CA96150     00000026                                    1    1                                                                                                                                                                                                       
B2023     25669946340107630                           000000012400000000000000000000000000000000000000000000000000000000000000000000000000000000000000000000000000000000000000000000000000000000000000000000000000000000000000000000000000000000000000000000000000000000000000                 JENNIFER L EDDY                                                                 PO BOX 9201                                                                     SOUTH LAKE TAHOE                        CA96158     00000027                                    1  1                                                                                                                                                                                                         
B2023     25677172570107846                           000000000000000000000000000000000000000001057600000000000000000000000000000000000000000000000000000000000000000000000000000000000000000000000000000000000000000000000000000000000000000000000000000000000000000000000000                 NICOLE L DANIELS                                                                1246 WALKER AVE APT 114                                                         WALNUT CREEK                            CA94596     00000028                                    1  1                                                                                                                                                                                                         
B2023     25567252760108083                           000000021700000000000000000000000000000000000000000000000000000000000000000000000000000000000000000000000000000000000000000000000000000000000000000000000000000000000000000000000000000000000000000000000000000000000000                 PHYLISE A WALKER                                                                1849 TOPPEWETAH ST                                                              S LAKE TAHOE                            CA96150     00000029                                    1    1                                                                                                                                                                                                       
B2023     25409293180108151                           000000026576000000000000000000000000000000000000000000000000000000000000000000000000000000000000000000000000000000000000000000000000000000000000000000000000000000000000000000000000000000000000000000000000000000000000                 SHARON J RUSK                                                                   P.O. BOX 4561                                                                   STATELINE                               NV89449     00000030                                    1    1                                                                                                                                                                                                       
B2023     25628543130108320                           000000005425000000000000000000000000000000000000000000000000000000000000000000000000000000000000000000000000000000000000000000000000000000000000000000000000000000000000000000000000000000000000000000000000000000000000                 PAIGE E CEFALU                                                                  3040 PANHANDLE CT                                                               S LAKE TAHOE                            CA96150     00000031                                    1    1                                                                                                                                                                                                       
B2023     25581905410110161                           000000000000000000000000000000000000000000901200000000000000000000000000000000000000000000000000000000000000000000000000000000000000000000000000000000000000000000000000000000000000000000000000000000000000000000000000                 AMY FORDYCE                                                                     648 ROGER AVE # 4                                                               S LAKE TAHOE                            CA96150     00000032                                    1  1                                                                                                                                                                                                         
B2023     23343056000110365                           000000005425000000000000000000000000000000000000000000000000000000000000000000000000000000000000000000000000000000000000000000000000000000000000000000000000000000000000000000000000000000000000000000000000000000000000                 JAMES F BARR                                                                    1845 BONANZA TRL                                                                S LAKE TAHOE                            CA96150     00000033                                    1                                                                                                                                                                                                            
B2023     25637702860111067                           000000008400000000000000000000000000000000000000000000000000000000000000000000000000000000000000000000000000000000000000000000000000000000000000000000000000000000000000000000000000000000000000000000000000000000000000                 STEVEN T GOMEZ                                                                  1885 VIKING WAY                                                                 S LAKE TAHOE                            CA96150     00000034                                    1  1                                                                                                                                                                                                         
B2023     25660480620111176                           000000012000000000000000000000000000000000000000000000000000000000000000000000000000000000000000000000000000000000000000000000000000000000000000000000000000000000000000000000000000000000000000000000000000000000000000                 SUSAN K ARKELL                                                                  2656 S UPPER TRUCKEE RD                                                         S LAKE TAHOE                            CA96150     00000035                                    1  1 1                                                                                                                                                                                                       
B2023     26800981540111179                           000000000000000000000000000000000000000000037100000000000000000000000000000000000000000000000000000000000000000000000000000000000000000000000000000000000000000000000000000000000000000000000000000000000000000000000000                 MERIEL LOPEZ                                                                    P.O. BOX 19485                                                                  SOUTH LAKE TAHOE                        CA96151     00000036                                    1                                                                                                                                                                                                            
B2023     25232554670111450                           000000024800000000000000000000000000000000000000000000000000000000000000000000000000000000000000000000000000000000000000000000000000000000000000000000000000000000000000000000000000000000000000000000000000000000000000                 JAYME L MILLER                                                                  871 MICHAEL DR                                                                  S LAKE TAHOE                            CA96150     00000037                                    1  1                                                                                                                                                                                                         
B2023     23949810260112067                           000000003100000000000000000000000000000000000000000000000000000000000000000000000000000000000000000000000000000000000000000000000000000000000000000000000000000000000000000000000000000000000000000000000000000000000000                 MEGAN E SUAREZ-BRAND                                                            1117 SIOUX ST                                                                   S LAKE TAHOE                            CA96150     00000038                                    1                                                                                                                                                                                                            
B2023     25539785540112112                           000000058900000000000000000000000000000000000000000000000000000000000000000000000000000000000000000000000000000000000000000000000000000000000000000000000000000000000000000000000000000000000000000000000000000000000000                 DAVID A APODACA                                                                 3505 BLACKWOOD RD                                                               S LAKE TAHOE                            CA96150     00000039                                    1  1 1                                                                                                                                                                                                       
B2023     26034418490112182                           000000000000000000000000000000000000000002635700000000000000000000000000000000000000000000000000000000000000000000000000000000000000000000000000000000000000000000000000000000000000000000000000000000000000000000000000                 MICAH M OWEN                                                                    1040 WINNEMUCCA AVE APT 1                                                       S LAKE TAHOE                            CA96150     00000040                                    1  1                                                                                                                                                                                                         
B2023     25709527320112648                           000000000000000000000000000000000000000001506000000000000000000000000000000000000000000000000000000000000000000000000000000000000000000000000000000000000000000000000000000000000000000000000000000000000000000000000000                 CHARLOTTE M MILLER WILLIS                                                       PO BOX 911                                                                      LOTUS                                   CA95651     00000041                                    1  1                                                                                                                                                                                                         
B2023     25517673790112958                           000000013350000000000000000000000000000000000000000000000000000000000000000000000000000000000000000000000000000000000000000000000000000000000000000000000000000000000000000000000000000000000000000000000000000000000000                 STEVEN D KATZMAN                                                                1027 CHEYENNE DR                                                                S LAKE TAHOE                            CA96150     00000042                                    1    1                                                                                                                                                                                                       
B2023     20154076420113244                           000000003875000000000000000000000000000000000000000000000000000000000000000000000000000000000000000000000000000000000000000000000000000000000000000000000000000000000000000000000000000000000000000000000000000000000000                 CAROLYN A ROBINSON                                                              2340 DUNDEE CIR                                                                 SOUTH LAKE TAHOE                        CA96150     00000043                                    1                                                                                                                                                                                                            
B2023     25502733170113251                           000000011950000000000000000000000000000000000000000000000000000000000000000000000000000000000000000000000000000000000000000000000000000000000000000000000000000000000000000000000000000000000000000000000000000000000000                 ANNA MARIA C VAN DER CORPUT                                                     100 HEIDI LN                                                                    CLOVERDALE                              CA95425     00000044                                    1                                                                                                                                                                                                            
B2023     25666349100113504                           000000000000000000000000000000000000000000244800000000000000000000000000000000000000000000000000000000000000000000000000000000000000000000000000000000000000000000000000000000000000000000000000000000000000000000000000                 JESSICA CASAS                                                                   P.O. BOX 10565                                                                  SOUTH LAKE TAHOE                        CA96158     00000045                                    1  1                                                                                                                                                                                                         
B2023     25667811630113617                           000000012400000000000000000000000000000000000000000000000000000000000000000000000000000000000000000000000000000000000000000000000000000000000000000000000000000000000000000000000000000000000000000000000000000000000000                 ROGER A HUBBARD                                                                 1858 BELLA COOLA DR                                                             S LAKE TAHOE                            CA96150     00000046                                    1                                                                                                                                                                                                            
B2023     25688704420113724                           000000026350000000000000000000000000000000000000000000000000000000000000000000000000000000000000000000000000000000000000000000000000000000000000000000000000000000000000000000000000000000000000000000000000000000000000                 KATIE B IRVIN                                                                   PO BOX 14207                                                                    SOUTH LAKE TAHOE                        CA96151     00000047                                    1    1                                                                                                                                                                                                       
B2023     25468729180113983                           000000006000000000000000000000000000000000304800000000000000000000000000000000000000000000000000000000000000000000000000000000000000000000000000000000000000000000000000000000000000000000000000000000000000000000000000                 CHRIS D FOX                                                                     2741 HANK MONK AVE                                                              S LAKE TAHOE                            CA96150     00000048                                    1  1                                                                                                                                                                                                         
B2023     25253972670114124                           000000062000000000000000000000000000000000000000000000000000000000000000000000000000000000000000000000000000000000000000000000000000000000000000000000000000000000000000000000000000000000000000000000000000000000000000                 SHANNON M MAGUIRE                                                               1461 MOUNT RAINIER DR                                                           S LAKE TAHOE                            CA96150     00000049                                    1  1 1                                                                                                                                                                                                       
B2023     25298230600114519                           000000013500000000000000000000000000000000000000000000000000000000000000000000000000000000000000000000000000000000000000000000000000000000000000000000000000000000000000000000000000000000000000000000000000000000000000                 VICKY L MCKAY                                                                   4164 GRAYWOOD CT                                                                SANTA ROSA                              CA95404     00000050                                    1                                                                                                                                                                                                            
B2023     25718484610115089                           000000015050000000000000000000000000000000000000000000000000000000000000000000000000000000000000000000000000000000000000000000000000000000000000000000000000000000000000000000000000000000000000000000000000000000000000                 MARGARET A MCDERMOTT                                                            530 BRADY DR                                                                    SIERRA CITY                             CA96125     00000051                                    1                                                                                                                                                                                                            
B2023     22541527080115573                           000000013500000000000000000000000000000000000000000000000000000000000000000000000000000000000000000000000000000000000000000000000000000000000000000000000000000000000000000000000000000000000000000000000000000000000000                 GEORGE N ROOKS                                                                  3540 SUGAR VIEW RD                                                              MEADOW VISTA                            CA95722     00000052                                    1                                                                                                                                                                                                            
B2023     25578257420115730                           000000005425000000000000000000000000000000000000000000000000000000000000000000000000000000000000000000000000000000000000000000000000000000000000000000000000000000000000000000000000000000000000000000000000000000000000                 KATHY L WHARTON                                                                 1894 TALBOT PL                                                                  S LAKE TAHOE                            CA96150     00000053                                    1                                                                                                                                                                                                            
B2023     25586950050116369                           000000000000000000000000000000011900000000000000000000000000000000000000000000000000000000000000000000000000000000000000000000000000000000000000000000000000000000000000000000000000000000000000000000000000000000000000                 ROBIN A HALL                                                                    2173 CORNELIAN DR                                                               S LAKE TAHOE                            CA96150     00000054                                    1  1                                                                                                                                                                                                         
B2023     25687282540116571                           000000005425000000000000000000000000000000000000000000000000000000000000000000000000000000000000000000000000000000000000000000000000000000000000000000000000000000000000000000000000000000000000000000000000000000000000                 JUDITH A SCHWARTZ                                                               560 WINTOON DR                                                                  S LAKE TAHOE                            CA96150     00000055                                    1                                                                                                                                                                                                            
B2023     26095263820116696                           000000000000000000000000000000000000000000075000000000000000000000000000000000000000000000000000000000000000000000000000000000000000000000000000000000000000000000000000000000000000000000000000000000000000000000000000                 BRIANNE A JAMES                                                                 PO BOX 9844                                                                     SOUTH LAKE TAHOE                        CA96158     00000056                                    1  1                                                                                                                                                                                                         
B2023     21846466290116812                           000000005425000000000000000000000000000000000000000000000000000000000000000000000000000000000000000000000000000000000000000000000000000000000000000000000000000000000000000000000000000000000000000000000000000000000000                 AARON J CULP                                                                    866 CLEMENT ST                                                                  S LAKE TAHOE                            CA96150     00000057                                    1    1                                                                                                                                                                                                       
B2023     25366617310116849                           000000010850000000000000000000000000000000000000000000000000000000000000000000000000000000000000000000000000000000000000000000000000000000000000000000000000000000000000000000000000000000000000000000000000000000000000                 THOMAS P CORVO                                                                  919 GLORENE AVE                                                                 S LAKE TAHOE                            CA96150     00000058                                    1                                                                                                                                                                                                            
B2023     25540494170117023                           000000010850000000000000000000000000000000000000000000000000000000000000000000000000000000000000000000000000000000000000000000000000000000000000000000000000000000000000000000000000000000000000000000000000000000000000                 MARIANNE C RICHETTI                                                             889 SAGEWOOD DR                                                                 S LAKE TAHOE                            CA96150     00000059                                    1    1                                                                                                                                                                                                       
B2023     25710484640117104                           000000000000000000000000000000015500000000000000000000000000000000000000000000000000000000000000000000000000000000000000000000000000000000000000000000000000000000000000000000000000000000000000000000000000000000000000                 LAURIE A AULT                                                                   747 CLEMENT ST BOX 4671 STATELINE NV 894                                        SOUTH LAKE TAHOE                        CA96150     00000060                                    1                                                                                                                                                                                                            
B2023     21474056460117481                           000000005425000000000000000000000000000000000000000000000000000000000000000000000000000000000000000000000000000000000000000000000000000000000000000000000000000000000000000000000000000000000000000000000000000000000000                 JOANNE D ROLFE                                                                  3933 SADDLE RD                                                                  S LAKE TAHOE                            CA96150     00000061                                    1                                                                                                                                                                                                            
B2023     20163807930117640                           000000007100000000000000000000000000000000000000000000000000000000000000000000000000000000000000000000000000000000000000000000000000000000000000000000000000000000000000000000000000000000000000000000000000000000000000                 ROGER R LETENDRE                                                                P.O. BOX 10613                                                                  SOUTH LAKE TAHOE                        CA96158     00000062                                    1                                                                                                                                                                                                            
B2023     25178097590117734                           000000013950000000000000000000000000000000000000000000000000000000000000000000000000000000000000000000000000000000000000000000000000000000000000000000000000000000000000000000000000000000000000000000000000000000000000                 LUKE A BRONKEN                                                                  706 LASSEN DR                                                                   SOUTH LAKE TAHOE                        CA96150     00000063                                    1    1                                                                                                                                                                                                       
B2023     26046859660118383                           000000003925000000000000000000000000000000000000000000000000000000000000000000000000000000000000000000000000000000000000000000000000000000000000000000000000000000000000000000000000000000000000000000000000000000000000                 ANJA C KROH                                                                     847 PLACER AVE                                                                  S LAKE TAHOE                            CA96150     00000064                                    1                                                                                                                                                                                                            
B2023     25549411640118971                           000000016275000000000000000000000000000000000000000000000000000000000000000000000000000000000000000000000000000000000000000000000000000000000000000000000000000000000000000000000000000000000000000000000000000000000000                 MARK M LEHMANN                                                                  1394 FRIANT CT                                                                  S LAKE TAHOE                            CA96150     00000065                                    1    1                                                                                                                                                                                                       
B2023     22122570770118993                           000000013500000000000000000000000000000000000000000000000000000000000000000000000000000000000000000000000000000000000000000000000000000000000000000000000000000000000000000000000000000000000000000000000000000000000000                 NADINE J TROUYET-DAVIS                                                          1321 MOUNTAIN MEADOW DR                                                         S LAKE TAHOE                            CA96150     00000066                                    1                                                                                                                                                                                                            
B2023     21293804320119129                           000000016275000000000000000000000000000000000000000000000000000000000000000000000000000000000000000000000000000000000000000000000000000000000000000000000000000000000000000000000000000000000000000000000000000000000000                 BONNIE G FAIR                                                                   1547 CHERRY HILLS CIR                                                           S LAKE TAHOE                            CA96150     00000067                                    1    1                                                                                                                                                                                                       
B2023     21096253290120257                           000000010850000000000000000000000000000000000000000000000000000000000000000000000000000000000000000000000000000000000000000000000000000000000000000000000000000000000000000000000000000000000000000000000000000000000000                 NOEL C RICHETTI                                                                 889 SAGEWOOD DR                                                                 S LAKE TAHOE                            CA96150     00000068                                    1    1                                                                                                                                                                                                       
B2023     24643362760120832                           000000015500000000000000000000000000000000000000000000000000000000000000000000000000000000000000000000000000000000000000000000000000000000000000000000000000000000000000000000000000000000000000000000000000000000000000                 RHONDA M KEEN                                                                   3412 BECKA DR                                                                   S LAKE TAHOE                            CA96150     00000069                                    1                                                                                                                                                                                                            
B2023     26063222020121002                           000000012400000000000000000000000000000000000000000000000000000000000000000000000000000000000000000000000000000000000000000000000000000000000000000000000000000000000000000000000000000000000000000000000000000000000000                 NATHANAEL E ALCORN                                                              2804 SANTA CLAUS DR                                                             S LAKE TAHOE                            CA96150     00000070                                    1                                                                                                                                                                                                            
B2023     25626781620121006                           000000027900000000000000000000000000000000000000000000000000000000000000000000000000000000000000000000000000000000000000000000000000000000000000000000000000000000000000000000000000000000000000000000000000000000000000                 MONIQUE M DOYEL                                                                 1326 KIMMERLING RD APT B                                                        GARDNERVILLE                            NV89460     00000071                                    1                                                                                                                                                                                                            
B2023     26065228720121141                           000000126000000000000000000000000000000000000000000000000000000000000000000000000000000000000000000000000000000000000000000000000000000000000000000000000000000000000000000000000000000000000000000000000000000000000000                 JOHN W JURY                                                                     617 BLUEROCK RD PO BOX 7423                                                     GARDNERVILLE                            NV89460     00000072                                    1                                                                                                                                                                                                            
B2023     25560673080121204                           000000000000000000000000000000005425000000000000000000000000000000000000000000000000000000000000000000000000000000000000000000000000000000000000000000000000000000000000000000000000000000000000000000000000000000000000                 SUSAN M HARTZELL                                                                1167 COYOTE RIDGE CIR                                                           S LAKE TAHOE                            CA96150     00000073                                    1                                                                                                                                                                                                            
B2023     22376997490121332                           000000005425000000000000000000000000000000000000000000000000000000000000000000000000000000000000000000000000000000000000000000000000000000000000000000000000000000000000000000000000000000000000000000000000000000000000                 STEVEN D KOLLER                                                                 4156 FAMOSOS CT                                                                 TRACY                                   CA95377     00000074                                    1                                                                                                                                                                                                            
B2023     25514341340121337                           000000005425000000000000000000000000000000000000000000000000000000000000000000000000000000000000000000000000000000000000000000000000000000000000000000000000000000000000000000000000000000000000000000000000000000000000                 DENISE E PILLSBURY                                                              784 W SAN BERNARDINO AVE                                                        S LAKE TAHOE                            CA96150     00000075                                    1    1                                                                                                                                                                                                       
B2023     25570674940121493                           000000005425000000000000000000000000000000000000000000000000000000000000000000000000000000000000000000000000000000000000000000000000000000000000000000000000000000000000000000000000000000000000000000000000000000000000                 SOCORRO L WACKENHUT                                                             1287 MOUNT DIABLO CIRCLE                                                        SOUTH LAKE TAHOE                        CA96150     00000076                                    1                                                                                                                                                                                                            
B2023     26809232630123136                           000000000000000000000000000000000000000000870400000000000000000000000000000000000000000000000000000000000000000000000000000000000000000000000000000000000000000000000000000000000000000000000000000000000000000000000000                 MYRIAM R HERNANDEZ                                                              3236 PLUM ST                                                                    S LAKE TAHOE                            CA96150     00000077                                    1  1                                                                                                                                                                                                         
B2023     25156254970123190                           000000005425000000000000000000000000000000000000000000000000000000000000000000000000000000000000000000000000000000000000000000000000000000000000000000000000000000000000000000000000000000000000000000000000000000000000                 SHERRY L MCMANUS                                                                P.O. BOX 1694                                                                   ZEPHYR COVE                             NV89448     00000078                                    1    1                                                                                                                                                                                                       
B2023     25547447280123804                           000000036425000000000000000000000000000000000000000000000000000000000000000000000000000000000000000000000000000000000000000000000000000000000000000000000000000000000000000000000000000000000000000000000000000000000000                 RICK S WHARTON                                                                  1894 TALBOT PL                                                                  S LAKE TAHOE                            CA96150     00000079                                    1    1                                                                                                                                                                                                       
B2023     25688815480124308                           000000005425000000000000000000000000000000000000000000000000000000000000000000000000000000000000000000000000000000000000000000000000000000000000000000000000000000000000000000000000000000000000000000000000000000000000                 NANCY E CARSON                                                                  PO BOX 7069                                                                     SOUTH LAKE TAHOE                        CA96158     00000080                                    1    1                                                                                                                                                                                                       
B2023     25725399690124365                           000000005425000000000000000000000000000000000000000000000000000000000000000000000000000000000000000000000000000000000000000000000000000000000000000000000000000000000000000000000000000000000000000000000000000000000000                 TANIA L PILKINTON                                                               1686 VENICE DR                                                                  S LAKE TAHOE                            CA96150     00000081                                    1    1                                                                                                                                                                                                       
B2023     25655130000124815                           000000053200000000000000000000000000000000200000000000000000000000000000000000000000000000000000000000000000000000000000000000000000000000000000000000000000000000000000000000000000000000000000000000000000000000000000                 CHARLOTTE L ROSBURG                                                             PO BOX 8843                                                                     SOUTH LAKE TAHOE                        CA96158     00000082                                    1  1 1                                                                                                                                                                                                       
B2023     25697147960125495                           000000012400000000000000000000000000000000000000000000000000000000000000000000000000000000000000000000000000000000000000000000000000000000000000000000000000000000000000000000000000000000000000000000000000000000000000                 BROOKE E WILLIAMSON                                                             903 KEKIN ST                                                                    S LAKE TAHOE                            CA96150     00000083                                    1                                                                                                                                                                                                            
B2023     25570888450125574                           000000005425000000000000000000000000000000000000000000000000000000000000000000000000000000000000000000000000000000000000000000000000000000000000000000000000000000000000000000000000000000000000000000000000000000000000                 DENISE L LINDSTRAND                                                             1230 JOBS PEAK DR                                                               SOUTH LAKE TAHOE                        CA96150     00000084                                    1    1                                                                                                                                                                                                       
B2023     25249897190125629                           000000046500000000000000000000000000000000000000000000000000000000000000000000000000000000000000000000000000000000000000000000000000000000000000000000000000000000000000000000000000000000000000000000000000000000000000                 BRUCE D ARMBRUST                                                                971 VILLA ST                                                                    CARSON CITY                             NV89701     00000085                                    1    1                                                                                                                                                                                                       
B2023     25624172760126144                           000000035600000000000000000000000000000000000000000000000000000000000000000000000000000000000000000000000000000000000000000000000000000000000000000000000000000000000000000000000000000000000000000000000000000000000000                 CHRISTIE A SANCHEZ                                                              PO BOX 8914                                                                     SOUTH LAKE TAHOE                        CA96151     00000086                                    1    1                                                                                                                                                                                                       
B2023     25483141630126478                           000000016275000000000000000000000000000000000000000000000000000000000000000000000000000000000000000000000000000000000000000000000000000000000000000000000000000000000000000000000000000000000000000000000000000000000000                 LYNDA J JACK                                                                    1247 PYRAMID CIR                                                                S LAKE TAHOE                            CA96150     00000087                                    1    1                                                                                                                                                                                                       
B2023     25611943390126606                           000000018925000000000000000000000000000000000000000000000000000000000000000000000000000000000000000000000000000000000000000000000000000000000000000000000000000000000000000000000000000000000000000000000000000000000000                 JANET M GOODALL                                                                 PO BOX 551003                                                                   S LAKE TAHOE                            CA96155     00000088                                    1                                                                                                                                                                                                            
B2023     25724911170126947                           000000012400000000000000000000000000000000000000000000000000000000000000000000000000000000000000000000000000000000000000000000000000000000000000000000000000000000000000000000000000000000000000000000000000000000000000                 ALIA A SELKE                                                                    PO BOX 7720                                                                     SOUTH LAKE TAHOE                        CA96158     00000089                                    1                                                                                                                                                                                                            
B2023     25304898500127024                           000000005425000000000000000000000000000000000000000000000000000000000000000000000000000000000000000000000000000000000000000000000000000000000000000000000000000000000000000000000000000000000000000000000000000000000000                 BASIL ANTON                                                                     P.O. BOX 9838                                                                   SOUTH LAKE TAHOE                        CA96158     00000090                                    1    1                                                                                                                                                                                                       
B2023     25478299340127708                           000000010850000000000000000000000000000000000000000000000000000000000000000000000000000000000000000000000000000000000000000000000000000000000000000000000000000000000000000000000000000000000000000000000000000000000000                 GLENN L RODERICK                                                                1624 SKYLINE DR.                                                                SOUTH LAKE TAHOE                        CA96150     00000091                                    1                                                                                                                                                                                                            
B2023     25539608410128023                           000000011950000000000000000000000000000000000000000000000000000000000000000000000000000000000000000000000000000000000000000000000000000000000000000000000000000000000000000000000000000000000000000000000000000000000000                 JEAN O BAUWENS                                                                  1962 TOPPEWETAH ST.                                                             SOUTH LAKE TAHOE                        CA96150     00000092                                    1                                                                                                                                                                                                            
B2023     25547116160128785                           000000005425000000000000000000000000000000000000000000000000000000000000000000000000000000000000000000000000000000000000000000000000000000000000000000000000000000000000000000000000000000000000000000000000000000000000                 ANGIE T KEIL                                                                    2306 DUNDEE CIR                                                                 S LAKE TAHOE                            CA96150     00000093                                    1                                                                                                                                                                                                            
B2023     25518684890128954                           000000005425000000000000000000000000000000000000000000000000000000000000000000000000000000000000000000000000000000000000000000000000000000000000000000000000000000000000000000000000000000000000000000000000000000000000                 JAMES P ROLLINS                                                                 PO BOX 8651                                                                     SOUTH LAKE TAHOE                        CA96158     00000094                                    1    1                                                                                                                                                                                                       
B2023     24485200410129459                           000000010850000000000000000000000000000000000000000000000000000000000000000000000000000000000000000000000000000000000000000000000000000000000000000000000000000000000000000000000000000000000000000000000000000000000000                 CARL W FAIR                                                                     1547 CHERRY HILLS CIR                                                           S LAKE TAHOE                            CA96150     00000095                                    1    1                                                                                                                                                                                                       
B2023     23928030070129810                           000000007100000000000000000000000000000000000000000000000000000000000000000000000000000000000000000000000000000000000000000000000000000000000000000000000000000000000000000000000000000000000000000000000000000000000000                 YVONNE M GRECO                                                                  3828 BRIAN LN                                                                   S LAKE TAHOE                            CA96150     00000096                                    1                                                                                                                                                                                                            
B2023     25729240700129860                           000000000000000000000000000000017400000000000000000000000000000000000000000000000000000000000000000000000000000000000000000000000000000000000000000000000000000000000000000000000000000000000000000000000000000000000000                 ANDREW M THOMPSON                                                               740 JULIE LN                                                                    S LAKE TAHOE                            CA96150     00000097                                    1                                                                                                                                                                                                            
B2023     25548145500129868                           000000005925000000000000000000000000000000000000000000000000000000000000000000000000000000000000000000000000000000000000000000000000000000000000000000000000000000000000000000000000000000000000000000000000000000000000                 AMY L JACKSON                                                                   557 KORU ST                                                                     S LAKE TAHOE                            CA96150     00000098                                    1    1                                                                                                                                                                                                       
B2023     25707472390129936                           000000003100000000000000000000000000000000000000000000000000000000000000000000000000000000000000000000000000000000000000000000000000000000000000000000000000000000000000000000000000000000000000000000000000000000000000                 STACIE J TAYLOR                                                                 170 MORGISON LOOP                                                               SEQUIM                                  WA98382     00000099                                    1                                                                                                                                                                                                            
B2023     25464526650130125                           000000021700000000000000000000000000000000000000000000000000000000000000000000000000000000000000000000000000000000000000000000000000000000000000000000000000000000000000000000000000000000000000000000000000000000000000                 JOHN R ALLEN                                                                    PO BOX 17803                                                                    SO LAKE TAHOE                           CA96151     00000100                                    1    1                                                                                                                                                                                                       
B2023     25488691230130514                           000000003100000000000000000000000000000000000000000000000000000000000000000000000000000000000000000000000000000000000000000000000000000000000000000000000000000000000000000000000000000000000000000000000000000000000000                 FRANK E RILEY                                                                   1554 HORACE GREELEY AVE                                                         SOUTH LAKE TAHOE                        CA96150     00000101                                    1                                                                                                                                                                                                            
B2023     25487639050130565                           000000005425000000000000000000000000000000000000000000000000000000000000000000000000000000000000000000000000000000000000000000000000000000000000000000000000000000000000000000000000000000000000000000000000000000000000                 MARY C EBRIGHT                                                                  P.O. BOX 9015                                                                   SOUTH LAKE TAHOE                        CA96158     00000102                                    1                                                                                                                                                                                                            
B2023     25699038270130815                           000000016275000000000000000000000000000000000000000000000000000000000000000000000000000000000000000000000000000000000000000000000000000000000000000000000000000000000000000000000000000000000000000000000000000000000000                 NINA BELCHER                                                                    P.O. BOX 9762                                                                   SOUTH LAKE TAHOE                        CA96158     00000103                                    1    1                                                                                                                                                                                                       
B2023     25587099230130958                           000000012400000000000000000000000000000000000000000000000000000000000000000000000000000000000000000000000000000000000000000000000000000000000000000000000000000000000000000000000000000000000000000000000000000000000000                 KAREN F HOUSER                                                                  890 ROGER AVE                                                                   S LAKE TAHOE                            CA96150     00000104                                    1                                                                                                                                                                                                            
B2023     25305615760131008                           000000016275000000000000000000000000000000000000000000000000000000000000000000000000000000000000000000000000000000000000000000000000000000000000000000000000000000000000000000000000000000000000000000000000000000000000                 DAWN E SHREVE                                                                   2036 13TH ST                                                                    S LAKE TAHOE                            CA96150     00000105                                    1                                                                                                                                                                                                            
B2023     25406406520131215                           000000005425000000000000000000000000000000000000000000000000000000000000000000000000000000000000000000000000000000000000000000000000000000000000000000000000000000000000000000000000000000000000000000000000000000000000                 LINDA J BARKALOW                                                                PO BOX 14007                                                                    SOUTH LAKE TAHOE                        CA96151     00000106                                    1    1                                                                                                                                                                                                       
B2023     25458658920131234                           000000012450000000000000000000000000000000000000000000000000000000000000000000000000000000000000000000000000000000000000000000000000000000000000000000000000000000000000000000000000000000000000000000000000000000000000                 ROBIN RINZLER                                                                   509 GAYNFAIR TER                                                                ARROYO GRANDE                           CA93420     00000107                                    1                                                                                                                                                                                                            
B2023     25668082590131782                           000000005425000000000000000000000000000000000000000000000000000000000000000000000000000000000000000000000000000000000000000000000000000000000000000000000000000000000000000000000000000000000000000000000000000000000000                 KEITH S KACZMAR                                                                 1873 VIKING WAY                                                                 S LAKE TAHOE                            CA96150     00000108                                    1                                                                                                                                                                                                            
B2023     20466233250131924                           000000015500000000000000000000000000000000000000000000000000000000000000000000000000000000000000000000000000000000000000000000000000000000000000000000000000000000000000000000000000000000000000000000000000000000000000                 JEFFREY M FRIEDLANDER                                                           3412 BECKA DR                                                                   S LAKE TAHOE                            CA96150     00000109                                    1                                                                                                                                                                                                            
B2023     25678417270132191                           000000008525000000000000000000000000000000000000000000000000000000000000000000000000000000000000000000000000000000000000000000000000000000000000000000000000000000000000000000000000000000000000000000000000000000000000                 CARMEL J BARBACCIA                                                              3050 SOURDOUGH TRL                                                              SOUTH LAKE TAHOE                        CA96150     00000110                                    1    1                                                                                                                                                                                                       
B2023     25580861890132561                           000000021700000000000000000000000000000000000000000000000000000000000000000000000000000000000000000000000000000000000000000000000000000000000000000000000000000000000000000000000000000000000000000000000000000000000000                 DONNA L RUSSELL                                                                 1847 BRULE ST                                                                   S LAKE TAHOE                            CA96150     00000111                                    1    1                                                                                                                                                                                                       
B2023     25542354750132916                           000000005425000000000000000000000000000000000000000000000000000000000000000000000000000000000000000000000000000000000000000000000000000000000000000000000000000000000000000000000000000000000000000000000000000000000000                 RYDER EVANS                                                                     268 ELKS POINT RD # 12232                                                       ZEPHYR COVE                             NV89448     00000112                                    1                                                                                                                                                                                                            
B2023     25689805920133092                           000000016275000000000000000000000000000000000000000000000000000000000000000000000000000000000000000000000000000000000000000000000000000000000000000000000000000000000000000000000000000000000000000000000000000000000000                 DIANE J CORVO                                                                   919 GLORENE AVE                                                                 SOUTH LAKE TAHOE                        CA96150     00000113                                    1    1                                                                                                                                                                                                       
B2023     25653524460135846                           000000005425000000000000000000000000000000000000000000000000000000000000000000000000000000000000000000000000000000000000000000000000000000000000000000000000000000000000000000000000000000000000000000000000000000000000                 COLLEEN F MANZER                                                                P.O. BOX 10293                                                                  ZEPHYR COVE                             NV89449     00000114                                    1                                                                                                                                                                                                            
B2023     26263804150136023                           000000013500000000000000000000000000000000000000000000000000000000000000000000000000000000000000000000000000000000000000000000000000000000000000000000000000000000000000000000000000000000000000000000000000000000000000                 DIANA E LOZANO                                                                  PO BOX 13121                                                                    SOUTH LAKE TAHOE                        CA96151     00000115                                    1                                                                                                                                                                                                            
B2023     23076498090136498                           000000065100000000000000000000000000000000000000000000000000000000000000000000000000000000000000000000000000000000000000000000000000000000000000000000000000000000000000000000000000000000000000000000000000000000000000                 NEIL A SCHNAIBLE                                                                831 KEKIN ST                                                                    S LAKE TAHOE                            CA96150     00000116                                    1  1                                                                                                                                                                                                         
B2023     22323776460136635                           000000005425000000000000000000000000000000000000000000000000000000000000000000000000000000000000000000000000000000000000000000000000000000000000000000000000000000000000000000000000000000000000000000000000000000000000                 SIERRA L KORTGE                                                                 460 LIDO DR                                                                     S LAKE TAHOE                            CA96150     00000117                                    1                                                                                                                                                                                                            
B2023     25712372760136952                           000000016275000000000000000000000000000000000000000000000000000000000000000000000000000000000000000000000000000000000000000000000000000000000000000000000000000000000000000000000000000000000000000000000000000000000000                 JENNIFER I SEELY-HAMBURG                                                        1780 SKYLINE DR.                                                                S. LAKE TAHOE                           CA96150     00000118                                    1    1                                                                                                                                                                                                       
B2023     24046231670137078                           000000000000000000000000000000006975000000000000000000000000000000000000000000000000000000000000000000000000000000000000000000000000000000000000000000000000000000000000000000000000000000000000000000000000000000000000                 LEE ANNE S GENASCI                                                              1263 GOLDEN BEAR TRL                                                            S LAKE TAHOE                            CA96150     00000119                                    1                                                                                                                                                                                                            
B2023     25494541700137228                           000000005425000000000000000000000000000000000000000000000000000000000000000000000000000000000000000000000000000000000000000000000000000000000000000000000000000000000000000000000000000000000000000000000000000000000000                 KEN A GRIEST                                                                    3489 RANCHO CIR                                                                 S LAKE TAHOE                            CA96150     00000120                                    1                                                                                                                                                                                                            
B2023     25600210260138812                           000000017825000000000000000000000000000000000000000000000000000000000000000000000000000000000000000000000000000000000000000000000000000000000000000000000000000000000000000000000000000000000000000000000000000000000000                 JACQUES H LANDY                                                                 1376 SKYLINE DR                                                                 SOUTH LAKE TAHOE                        CA96150     00000121                                    1  1                                                                                                                                                                                                         
B2023     25507975740139777                           000000015500000000000000000000000000000000000000000000000000000000000000000000000000000000000000000000000000000000000000000000000000000000000000000000000000000000000000000000000000000000000000000000000000000000000000                 MICHAEL S SPINA                                                                 1848 HUNKPAPA ST                                                                S LAKE TAHOE                            CA96150     00000122                                    1                                                                                                                                                                                                            
B2023     21854807960140198                           000000005425000000000000000000000000000000000000000000000000000000000000000000000000000000000000000000000000000000000000000000000000000000000000000000000000000000000000000000000000000000000000000000000000000000000000                 JAMES J STAHL                                                                   2491 TALBOT ST                                                                  S LAKE TAHOE                            CA96150     00000123                                    1                                                                                                                                                                                                            
B2023     26090989490140411                           000000000000000000000000000000000000000000100000000000000000000000000000000000000000000000000000000000000000000000000000000000000000000000000000000000000000000000000000000000000000000000000000000000000000000000000000                 TIFFANY C REID                                                                  P.O BOX 17210                                                                   SOUTH LAKE TAHOE                        CA96150     00000124                                    1  1                                                                                                                                                                                                         
B2023     25595964580140514                           000000010850000000000000000000000000000000000000000000000000000000000000000000000000000000000000000000000000000000000000000000000000000000000000000000000000000000000000000000000000000000000000000000000000000000000000                 CHRISTY S BLACH                                                                 3517 DEER LANE                                                                  SOUTH LAKE TAHOE                        CA96151     00000125                                    1                                                                                                                                                                                                            
B2023     22122728850140615                           000000000000000000000000000000000000000000089100000000000000000000000000000000000000000000000000000000000000000000000000000000000000000000000000000000000000000000000000000000000000000000000000000000000000000000000000                 GARY J PORTERFIELD                                                              10515 COLE WAY                                                                  GRASS VALLEY                            CA95945     00000126                                    1  1                                                                                                                                                                                                         
B2023     20964241800141723                           000000013500000000000000000000000000000000000000000000000000000000000000000000000000000000000000000000000000000000000000000000000000000000000000000000000000000000000000000000000000000000000000000000000000000000000000                 STEVEN FRIEDLAND                                                                2515 MIMOSA ST                                                                  SANTA ROSA                              CA95405     00000127                                    1                                                                                                                                                                                                            
B2023     25514712920141995                           000000003100000000000000000000000000000000000000000000000000000000000000000000000000000000000000000000000000000000000000000000000000000000000000000000000000000000000000000000000000000000000000000000000000000000000000                 CHARLES L TAYLOR                                                                858 PANKA ST                                                                    S LAKE TAHOE                            CA96150     00000128                                    1                                                                                                                                                                                                            
B2023     25559020230142046                           000000010850000000000000000000000000000000000000000000000000000000000000000000000000000000000000000000000000000000000000000000000000000000000000000000000000000000000000000000000000000000000000000000000000000000000000                 KATHERINE A BORGES                                                              2173 INVERNESS DR                                                               S LAKE TAHOE                            CA96150     00000129                                    1    1                                                                                                                                                                                                       
B2023     25489810040143133                           000000006200000000000000000000000000000000000000000000000000000000000000000000000000000000000000000000000000000000000000000000000000000000000000000000000000000000000000000000000000000000000000000000000000000000000000                 RUSSELL J CRAWFORD                                                              P.O. BOX 551407                                                                 SLT                                     CA96155     00000130                                    1                                                                                                                                                                                                            
B2023     25668698960144042                           000000016275000000000000000000000000000000000000000000000000000000000000000000000000000000000000000000000000000000000000000000000000000000000000000000000000000000000000000000000000000000000000000000000000000000000000                 LYNNE A MERSEREAU                                                               836 EL DORADO AVE                                                               S LAKE TAHOE                            CA96150     00000131                                    1    1                                                                                                                                                                                                       
B2023     25470290840144128                           000000010850000000000000000000000000000000000000000000000000000000000000000000000000000000000000000000000000000000000000000000000000000000000000000000000000000000000000000000000000000000000000000000000000000000000000                 LAURIE L ANTON                                                                  P.O. BOX 9838                                                                   SOUTH LAKE TAHOE                        CA96158     00000132                                    1    1                                                                                                                                                                                                       
B2023     22315824560144359                           000000000000000000000000000000005425000000000000000000000000000000000000000000000000000000000000000000000000000000000000000000000000000000000000000000000000000000000000000000000000000000000000000000000000000000000000                 JEANNE A ROSEN                                                                  P.O. BOX 16555                                                                  S LAKE TAHOE                            CA96150     00000133                                    1                                                                                                                                                                                                            
